:100000000C94FA001895000018950000189500004F
:10001000189500001895000018950000189500002C
:10002000189500001895000018950000189500001C
:10003000189500001895000018950000189500000C
:1000400018950000189500001895000018950000FC
:1000500018950000189500001895000018950000EC
:1000600018950000189500001895000018950000DC
:1000700018950000189500001895000018950000CC
:1000800018950000189500001895000018950000BC
:1000900018950000189500001895000018950000AC
:1000A000189500001895000018950000189500009C
:1000B000189500001895000018950000189500008C
:1000C000189500001895000018950000189500007C
:1000D000189500001895000018950000189500006C
:1000E000189500001895000018950000189500005C
:1000F000189500001895000018950000189500004C
:10010000189500001895000018950000189500003B
:10011000189500001895000018950000189500002B
:10012000189500001895000018950000189500001B
:10013000189500001895000018950000189500000B
:1001400018950000189500001895000018950000FB
:1001500018950000189500001895000018950000EB
:1001600018950000189500001895000018950000DB
:1001700018950000189500001895000018950000CB
:1001800018950000189500001895000018950000BB
:1001900018950000189500001895000018950000AB
:1001A000189500001895000018950000189500009B
:1001B000189500001895000018950000189500008B
:1001C000189500001895000018950000189500007B
:1001D000189500001895000018950000189500006B
:1001E000189500001895000018950000189500005B
:1001F000189500008FEF8DBFC0ECE8E54E2E8FE321
:100200008EBFDFE2FFE25F2E009078008FE38093E5
:10021000780081E078ED74BF8093800080E16624EF
:100220007FE27EBF8FEF9FEFABE7B1E28D939C93B0
:1002300004EF1AE30E94A420ACE9B1E20D931C93F1
:10024000ACE9B1E2BA93AA93A9E2B0E2BA93AA9355
:100250000E94D7052496ABE7B1E20E945C1FA9E299
:10026000B0E28C91803011F00C94200180E08093FA
:100270007D2100E010E020E030E0AEE7B1E20D9338
:100280001D932D933C9300E010E020E030E0A2E8C5
:10029000B1E20D931D932D933C9380E080938621D2
:1002A0008CE070E07A930E940C20E0E5F3E40E9479
:1002B000A42080E08A930E94FE1F0E94992080E083
:1002C0008A930E940620E0E7F3E40E94A42080E0E5
:1002D0008A930E94FE1F0E94992080E08A930E94C8
:1002E0000620E6E9F3E40E94A42080E08A930E94BD
:1002F000FE1F0E94992080E08A930E940620ECEA6B
:10030000F3E40E94A42080E08A930E94FE1F0E94D2
:10031000992080E08A930E940620E6EEF3E40E9492
:10032000A42080E08A930E94FE1F0E94992080E012
:100330008A930E940620E8EEF3E40E94A42080E065
:100340008A930E94FE1F0E94992082E270E07A93B5
:100350000E940C20E4E0F4E40E94A42080E08A9350
:100360000E94FE1F0E94992082E270E07A930E9410
:100370000C20EAE0F4E40E94A42080E08A930E942A
:10038000FE1F0E94992080E08A930E940620E6EEDC
:10039000F3E40E94A42080E08A930E94FE1F0E9442
:1003A000992080E08A930E940620D201ECE0F4E4D8
:1003B0000E94A4200E94602082E00E945020A9E2B6
:1003C000B0E2BA93AA938FE490E0D2018D939C930C
:1003D00082E00E9450200E949202269684E00E94B1
:1003E0004C200E94FD0304EF1AE30E94A420ACE914
:1003F000B1E20D931C93ACE9B1E2BA93AA93A9E7D9
:10040000B0E2BA93AA93A8E9B1E2BA93AA930E9480
:100410000B052696A8E9B1E20D911C91003050E041
:1004200015071CF011F00C9417020C9448020CE90B
:100430001DE00E94A420E02FF12FA8E9B1E20D9168
:100440001C9101501040ACE9B1E20D931C93ACE952
:10045000B1E20D911C9144E050E00E945620ACE9BD
:10046000B1E20D931C930E2F1F2FACE9B1E24D9119
:100470005C91040F151FE02FF12F0E2F1F2F42E06C
:1004800050E00E94901FE42FF52F09950C948E02E6
:10049000EEE0F4E40E94A42080E08A930E94FE1F14
:1004A0000E94992082E270E07A930E940C20A9E7D2
:1004B000B0E280E08A930E94F71F82E270E07A93B4
:1004C0000E940C20E2E2F4E40E94A42080E08A93DF
:1004D0000E94FE1F0E94992082E270E07A930E949F
:1004E0000C20E4E0F4E40E94A42080E08A930E94BF
:1004F000FE1F0E94992082E270E07A930E940C20F5
:10050000EAE0F4E40E94A42080E08A930E94FE1FA7
:100510000E94992080E08A930E9406200C94D501C5
:10052000F894FFCF81E00E94502081E00E9450208B
:1005300082E00E94502082E00E94502082E00E94CF
:100540005020AA85BB850D911C910F3450E01507F2
:100550001CF011F00C94AE020C94B4028FE490E005
:10056000AA85BB858D939C93AA85BB850D911C9113
:100570000F931F93AE85BF850E948E21482F55276C
:100580001F910F91040F151FA881B9810D931C9322
:10059000A881B9810D911C910F3450E015071CF012
:1005A00011F00C94D5020C94E9020FE410E00F93C3
:1005B0001F93AE85BF850E948E21482F55271F911E
:1005C0000F91041B150BA881B9810D931C930C94FA
:1005D000F102AA85BB858D919C91A881B9818D93EB
:1005E0009C93AC85BD8588278C9380E090E0AC819E
:1005F000BD818D939C93AE85BF8580E08A930E94D8
:10060000F71F70E07A930E94E91FA885B9858C9343
:10061000A885B9850C91083011F00C944103AC8188
:10062000BD810D911C91003050E015071CF011F0B8
:100630000C941C030C943F0388E070E07A930E94B2
:100640000C20E6E4F4E40E94A42080E08A930E9457
:10065000FE1F0E94992088E070E07A930E940C208F
:10066000AC81BD810E94631F0E949920EC85FD85AD
:10067000AC81BD810C91AC85BD850E947C210C9420
:100680007A03A885B9850C910F3180E010F009F04C
:1006900081E08F93A885B9850C910F3781E008F030
:1006A00080E09F918923882311F40C947A03A88118
:1006B000B9814D915C91AC81BD810D911C91041764
:1006C00015070CF402C00C947A03AC81BD810E9422
:1006D0005C1FA885B9858C91AC85BD850E94AA1F39
:1006E0008D9388278C93A885B9858C9170E07A9337
:1006F0000E940C20A885B9850C910D3011F00C9446
:10070000010381E0AE81BF818C93AC81BD810D91ED
:100710001C91003050E015071CF011F00C9492036E
:100720000C94D20381E090E0AA81BB818D939C93CD
:10073000AC81BD814D915C91AA81BB810D911C91D1
:10074000041715071CF011F00C94D20383E00E94EB
:100750005020AC81BD818C910E949920EE85FF854F
:1007600001E00A93A981BA810E947521A881B9810B
:10077000E6E4F4E40E94A4200E9494210FB683E0F2
:10078000481A80E0580A22960FBE11F40C94CC034C
:1007900080E0AE81BF818C93AA81BB810E945C1FE7
:1007A0000C949803AE81BF810C91013011F00C9430
:1007B000E903E6EEF3E40E94A42080E08A930E941D
:1007C000FE1F0E94992080E08A930E9406200C94CC
:1007D000F102E6EEF3E40E94A42080E08A930E94F6
:1007E000FE1F0E94992080E08A930E94062088E0E4
:1007F000481A80E0580A2A96089582E00E94502004
:1008000082E00E94502081E00E94502082E00E94FD
:10081000502081E090E0AC81BD818D939C93AC81B0
:10082000BD810D911C91003150E015071CF011F0B5
:100830000C942E04AC81BD810D911C9140E150E0DF
:100840000E945620A9E6B0E2A00FB11F88278C9322
:10085000AC81BD810E945C1F0C940F0481E090E08C
:10086000AE81BF818D939C9380E090E0AC81BD818F
:100870008D939C9381E0AA81BB818C9381E090E071
:10088000AE81BF818D939C93A9E2B0E20E948E213C
:10089000482F5527AE81BF810D911C910417150774
:1008A0001CF011F00C94FD04AA81BB810C91013065
:1008B00081E009F080E08F9381E50E945020A885B7
:1008C000B9858C910E949920E9E2F0E201E00A9357
:1008D000A981BA810E947521A881B981E6E4F4E476
:1008E0000E94A4200E9494210FB681E5481A80E05E
:1008F000580A22960FBE81E009F480E09F91892377
:10090000882311F40C94940480E0AA81BB818C9319
:10091000AC81BD810E945C1F80E090E0A881B9811C
:100920008D939C930C94C804AA81BB810C910030D8
:1009300081E009F080E08F9381E50E945020A88536
:10094000B9858C910E949920E9E2F0E201E00A93D6
:10095000A981BA810E947521A881B981E6E4F4E4F5
:100960000E94A4200E9494210FB681E5481A80E0DD
:10097000580A22960FBE81E009F080E09F918923FA
:10098000882311F40C94C80481E0AA81BB818C9364
:10099000AA81BB810C91003011F00C94F704A8815E
:1009A000B9810D911C910F3050E015070CF402C075
:1009B0000C94F704AE81BF818C910E949920E9E2EA
:1009C000F0E201E00A93AD81BE810D911C9140E1FE
:1009D00050E00E945620A9E6B0E2A00FB11F0E948D
:1009E000AA1F0E947521A881B9810E945C1FAE8157
:1009F000BF810E945C1F0C944404AC81BD818D9129
:100A00009C91A9E7B1E28D939C9387E0481A80E01E
:100A1000580A2896089580E10E94502080E090E0D6
:100A2000AA81BB818D939C93AA81BB810E945C1F8C
:100A3000AE81BF81BA93AA93AA81BB81BA93AA93CC
:100A40000E94D7052496A881B9818C91803011F03D
:100A50000C94320580E090E0AA81BB818D939C9339
:100A60000C9459050E949920E881F981A881B981E7
:100A70000E94872081E00E9450200E949920EE81F0
:100A8000FF81A881B9810E9487200E949920E88176
:100A9000F981AA81BB810E9496210FB681E0481A94
:100AA00080E0580A22960FBE11F40C9459050C945C
:100AB000140580E1481A80E0580A2296089581E0E2
:100AC0000E945020AA81BB810E94631FAA81BB8122
:100AD0000D911C91003050E0150718F011F00C94A6
:100AE00073050C949205AC81BD818C91E82FAC818B
:100AF000BD8111968C91F82FA881B981C8950C926F
:100B00003196A881B9810C91003011F00C947C05CC
:100B1000AC81BD81ED93FC93AA81BB810E94631FD0
:100B20000C94660581E0481A80E0580A22960895E0
:100B300081E00E945020AA81BB818C91E82FAA817C
:100B4000BB8111968C91F82FA881B981C8950C9220
:100B50003196EF93FF93A881B9818C9170E07A93DD
:100B60000E940C20FF91EF91A881B9810C91003077
:100B700011F00C94A405AA81BB81FD9388278C9366
:100B800098E0AA81BB810E946620AA81BB810D9159
:100B90001C914E2F5527040F151FAA81BB810D9361
:100BA0001C9381E0481A80E0580A2296089581E05B
:100BB0000E945020AC81BD818C91E82FAC81BD8119
:100BC00011968C91F82FAA81BB8188278C93A881DC
:100BD000B981C8950C923196A881B9810C910030E9
:100BE00011F40C94FD05A881B9818C91AA81BB8177
:100BF0000E94AA1F8D9388278C93A881B9810C919C
:100C0000003011F00C94E705AC81BD81FD9388277D
:100C10008C9398E0AC81BD810E946620AC81BD813F
:100C20000D911C914E2F5527040F151FAC81BD81CE
:100C30000D931C9381E0481A80E0580A229608958B
:100C400084E00E94502081E00E94502082E00E94B7
:100C5000502083E00E94502000E010E020E030E0CF
:100C6000AE81BF810D931D932D933C930E949920DB
:100C7000EC85FD8502E0A881B9810E947C2181E09C
:100C80000E9450200E949920EA81FB81A881B981AD
:100C90000E948720A881B981E8E4F4E40E94A4209E
:100CA0000E9494210FB681E0481A80E0580A2296EB
:100CB0000FBE11F00C947B06AC85BD850E948E2181
:100CC000082F112702501040AA81BB810D931C935D
:100CD000AC85BD850E9499200E948E21EA2FFB2FB2
:100CE000AA81BB810C913197E01BF0400FEFAC85DE
:100CF000BD850E947C21AC85BD850E948E21A1E12D
:100D0000B0E28C9300911120063018F011F00C9491
:100D10008B060C94910682E0A885B9858C930C947F
:100D2000C806AC85BD850E948E21A1E1B0E28C93FE
:100D300000911120003011F00C94A40684E0A885E5
:100D4000B9858C930C94C806AC85BD850E94BA1FEA
:100D5000AE81BF810D931D932D933D9362FA16F0E2
:100D60000C94B80683E0A885B9858C930C94C806CA
:100D700081E0A885B9858C93AE81BF810D911D91CD
:100D80002D913C91AA85BB850D931D932D933C938A
:100D90008AE0481A80E0580A289608950C94DA06EA
:100DA0000C94DD060C94E0060C94E3060C94E60625
:100DB0000C94E9060E94EC0608950E943E0A0895EC
:100DC0000E945D0F08950E94001608950E94061665
:100DD00008950E941116089582E00E94502080E13B
:100DE0000E94502082E00E94502082E00E94502009
:100DF00082E00E945020A9E7B1E20D911C910230DF
:100E000050E015070CF402C00C943407ECE4F4E451
:100E10000E94A42080E08A930E94FE1F0E949920D5
:100E200082E270E07A930E940C20E4E0F4E40E94F5
:100E3000A42080E08A930E94FE1F0E94992082E2F3
:100E400070E07A930E940C20EAE0F4E40E94A4206F
:100E500080E08A930E94FE1F0E94992080E08A937E
:100E60000E9406200C94380AA9E7B1E20D911C916A
:100E7000023050E015071CF011F00C9441070C945F
:100E80006F07E8E6F4E40E94A42080E08A930E94C1
:100E9000FE1F0E94992082E270E07A930E940C204B
:100EA000E4E0F4E40E94A42080E08A930E94FE1F04
:100EB0000E94992082E270E07A930E940C20EAE07E
:100EC000F4E40E94A42080E08A930E94FE1F0E9406
:100ED000992080E08A930E9406200C94380AA9E8A1
:100EE000B0E20E941621A885B9850D931C93A885B0
:100EF000B9850D911C91003050E015070CF402C02B
:100F00000C949207E2E8F4E40E94A42080E08A9323
:100F10000E94FE1F0E94992080E08A930E94062072
:100F20000C94380AA885B9850D911C91003050E0C9
:100F300015071CF011F00C949F070C946B09ABE79C
:100F4000B1E20D911C91003050E0150711F00C94A6
:100F5000B10780E090E0A881B9818D939C930C94B7
:100F6000D907ABE7B1E28D919C91A881B9818D93AE
:100F70009C93A881B9810D911C9101501040A881CA
:100F8000B9810D931C93A881B9810D911C9148E002
:100F900050E00E94701FA881B9814D935C93A88195
:100FA000B9810D911C910F5F1F4FA881B9810D93DD
:100FB0001C93A881B9814D915C91A885B9850D914B
:100FC0001C91041715071CF011F00C94E9070C9400
:100FD0000F08EAEAF4E40E94A42080E08A930E94C9
:100FE000FE1F0E949920A0E4BFE20E949920E881A0
:100FF000F9810E94CD2080E08A930E94F51FEAE0EB
:10100000F4E40E94A42080E08A930E94FE1F0E94C4
:10101000992080E08A930E9406200C946909E4EDEF
:10102000F4E40E94A42080E08A930E94FE1F0E94A4
:101030009920A0E4BFE20E949920E885F9850E94EA
:10104000CD2080E08A930E94F51FECEEF4E40E942C
:10105000A42080E08A930E94FE1F0E949920A0E4B1
:10106000BFE20E949920E881F9810E94CD2080E0B2
:101070008A930E94F51FE2EFF4E40E94A42080E02E
:101080008A930E94FE1F0E94992080E08A930E940A
:10109000062004EF1AE30E94A420ACE9B1E20D930C
:1010A0001C9302E11BE30E94A420AC81BD810D933F
:1010B0001C93A885B9858D919C91AA81BB818D9344
:1010C0009C93AA81BB810D911C9148E050E00E9445
:1010D0005620AA81BB810D931C9387E090E0A8E97C
:1010E000B1E28D939C93AA81BB810D911C91A8E9DB
:1010F000B1E24D915C91041B150BAA81BB810D934C
:101100001C9381E090E0A8E9B1E28D939C93A8E95B
:10111000B1E20D911C91083050E015071CF011F060
:101120000C94EA08ABE7B1E24D915C91AA81BB81D6
:101130000D911C91041715071CF011F00C94A208D6
:101140000C94A4080C94EA08A0E4BFE20E94992041
:10115000E8E9F1E20E94CD2080E08A930E94F51F29
:10116000E6EFF4E40E94A42080E08A930E94FE1F30
:101170000E949920ACE9B1E2BA93AA930E94980523
:101180002296EAEFF4E40E94A42080E08A930E9471
:10119000FE1F0E949920AC81BD81BA93AA930E9440
:1011A00098052296E6EEF3E40E94A42080E08A935C
:1011B0000E94FE1F0E94992080E08A930E940620D0
:1011C000AA81BB810E945C1FA8E9B1E20E945C1F5A
:1011D0000C948708EEEFF4E40E94A42080E08A9348
:1011E0000E94FE1F0E949920A0E4BFE20E94992065
:1011F000E885F9850E94CD2080E08A930E94F51F42
:10120000EAE0F4E40E94A42080E08A930E94FE1F9A
:101210000E949920A881B9814D915C91A885B985DA
:101220000D911C910417150711F00C942709E6EE97
:10123000F3E40E94A42080E08A930E94FE1F0E9493
:10124000992080E08A930E9406200C946909A88561
:10125000B9850D911C910F5F1F4FA8E9B1E20D9365
:101260001C93ECE0F5E40E94A42080E08A930E94A5
:10127000FE1F0E94992082E270E07A930E940C2067
:10128000E2E2F5E40E94A42080E08A930E94FE1F1F
:101290000E949920A0E4BFE20E949920E8E9F1E2CF
:1012A0000E94CD2080E08A930E94F51F82E270E0C8
:1012B0007A930E940C20EAE0F4E40E94A42080E0EB
:1012C0008A930E94FE1F0E94992080E08A930E94C8
:1012D00006200C94380A0E949920E9E8F0E2AE81D9
:1012E000BF810E94872004EF1AE30E94A420ACE98A
:1012F000B1E20D931C93ACE9B1E2BA93AA93A9E8C9
:10130000B0E2BA93AA93A8E9B1E2BA93AA930E9471
:101310000B052696A8E9B1E20D911C91003050E032
:1013200015071CF011F00C9497090C94F209E8E2EF
:10133000F5E40E94A42080E08A930E94FE1F0E9490
:10134000992082E270E07A930E940C20AE81BF81E6
:1013500080E08A930E94F71F82E270E07A930E94F5
:101360000C20ECE3F5E40E94A42080E08A930E9424
:10137000FE1F0E94992080E08A930E94062002E1CD
:101380001BE30E94A420ACE9B1E20D931C93ACE9ED
:10139000B1E2BA93AA93A8E9B1E28D919C91D201EE
:1013A0008D939C9382E00E9450200E945F052496BA
:1013B00082E00E944C20ACE9B1E2BA93AA930E9469
:1013C00098052296E6EEF3E40E94A42080E08A933A
:1013D0000E94FE1F0E94992080E08A930E940620AE
:1013E0000C94380AEEE3F5E40E94A42080E08A938E
:1013F0000E94FE1F0E94992082E270E07A930E9470
:101400000C20AE81BF8180E08A930E94F71F82E2A8
:1014100070E07A930E940C20E8E4F5E40E94A42096
:1014200080E08A930E94FE1F0E94992082E270E071
:101430007A930E940C20E4E0F4E40E94A42080E06F
:101440008A930E94FE1F0E94992082E270E07A93A4
:101450000E940C20EAE0F4E40E94A42080E08A9339
:101460000E94FE1F0E94992080E08A930E9406201D
:1014700088E1481A80E0580A2A96089581E00E947F
:10148000502084E00E94502084E00E94502081E09F
:101490000E94502081E00E94502080E10E94502054
:1014A00084E00E94502081E00E94502080E0AE81C4
:1014B000BF818C93A9E7B1E20D911C91023050E0FD
:1014C00015070CF402C00C94750AE8E7F5E40E94D5
:1014D000A42080E08A930E94FE1F0E94992080E051
:1014E0008A930E9406200C94440DA9E7B1E20D9165
:1014F0001C91023050E0150711F00C94A60B0E94CD
:101500009920E9E8F0E2AC81BD810E948720AC819E
:10151000BD81E0E9F5E40E94A4200E94942111F02D
:101520000C94CB0A00917D21013011F00C94BB0A80
:10153000AEE7B1E20D911D912D913C91AC85BD8539
:101540000D931D932D933C93A2E8B1E20D911D9153
:101550002D913C91AA85BB850D931D932D933C93B2
:1015600080918621AE85BF858C9381E0AE81BF815D
:101570008C930C94C90AE8E9F5E40E94A42080E069
:101580008A930E94FE1F0E94992080E08A930E9405
:1015900006200C94A40BAC81BD81E6EBF5E40E941F
:1015A000A4200E94942111F00C94E60AECEBF5E4DF
:1015B0000E94A42080E08A930E94FE1F0E9499202E
:1015C00080E08A930E9406200C94A40BAC81BD811C
:1015D000E0EEF5E40E94A4200E94942111F00C9406
:1015E000010BE6EEF5E40E94A42080E08A930E94BD
:1015F000FE1F0E94992080E08A930E9406200C948E
:10160000A40BAC81BD81ECEFF5E40E94A4200E9404
:10161000942111F00C941C0BE6EEF5E40E94A4203A
:1016200080E08A930E94FE1F0E94992080E08A93A6
:101630000E9406200C94A40BAC81BD81E2E0F6E48C
:101640000E94A4200E94942111F00C947C0B009124
:101650007D21003011F00C943D0BE8E0F6E40E948F
:10166000A42080E08A930E94FE1F0E94992080E0BF
:101670008A930E9406200C947A0BA2E8B1E20D91A5
:101680001D912D913C91AC85BD850D931D932D939E
:101690003C93A2E8B1E20D911D912D913C91AEE7F2
:1016A000B1E24D915D916D917C910E94AF20AA8530
:1016B000BB850D931D932D933D93AA85BB850D91FD
:1016C0001D912D913C91A2E8B1E24D915D916D91FA
:1016D0007C910E94AA20AA85BB850D931D932D9312
:1016E0003D9380918621AE85BF858C9381E0AE814C
:1016F000BF818C930C94A40B82E270E07A930E94D9
:101700000C20E6E4F6E40E94A42080E08A930E9484
:10171000FE1F0E949920A9E8B0E280E08A930E940F
:10172000F71F82E270E07A930E940C20ECE4F6E46A
:101730000E94A42080E08A930E94FE1F0E949920AC
:1017400080E08A930E9406200C94440DA9E7B1E240
:101750000D911C91023050E015071CF011F00C9413
:10176000B30B0C94440D0E949920E9E8F0E2AC819F
:10177000BD810E948720AC81BD81E0EEF5E40E942E
:10178000A4200E94942111F00C94CC0B81E0AE8532
:10179000BF858C930C942B0CAC81BD81ECEFF5E4F0
:1017A0000E94A4200E94942111F00C94DD0B82E091
:1017B000AE85BF858C930C942B0C80E0AE85BF85E5
:1017C0008C93EAE7F6E40E94A42080E08A930E94CA
:1017D000FE1F0E94992082E270E07A930E940C2002
:1017E000E0EEF5E40E94A42080E08A930E94FE1FB0
:1017F0000E94992082E270E07A930E940C20E6E930
:10180000F6E40E94A42080E08A930E94FE1F0E94BA
:10181000992082E270E07A930E940C20ECEFF5E4CC
:101820000E94A42080E08A930E94FE1F0E949920BB
:1018300082E270E07A930E940C20ECE9F6E40E94C8
:10184000A42080E08A930E94FE1F0E94992080E0DD
:101850008A930E940620AE85BF850C91003011F45A
:101860000C94440D0E949920E9E9F0E2D2010E9413
:10187000702180E10E945020AE85BF85BA93AA9363
:10188000AC85BD85BA93AA930E942006269680E176
:101890000E944C20A885B9850C91023011F00C945F
:1018A000610CECEAF6E40E94A42080E08A930E9496
:1018B000FE1F0E94992080E08A930E9406200C94CB
:1018C000440D033011F00C94750CE4ECF6E40E9426
:1018D000A42080E08A930E94FE1F0E94992080E04D
:1018E0008A930E9406200C94440D043011F00C944D
:1018F000890CE0EFF6E40E94A42080E08A930E9425
:10190000FE1F0E94992080E08A930E9406200C947A
:10191000440DA9E7B1E20D911C91033050E0150789
:1019200011F00C94AB0CAC85BD850D911D912D91E2
:101930003C914FEF50E060E070E00E94AA20AA8541
:10194000BB850D931D932D933D9381E0AE81BF81A7
:101950008C930C94440DA9E7B1E20D911C910430D5
:1019600050E0150711F00C94360D0E949920E9EA19
:10197000F0E2D2010E94702180E10E945020AC85EB
:10198000BD85BA93AA93AC85BD85BA93AA930E94EC
:101990002006269680E10E944C20A885B9850C91EE
:1019A000023011F00C94E40CEAE0F7E40E94A42069
:1019B00080E08A930E94FE1F0E94992080E08A9313
:1019C0000E9406200C94340D033011F00C94F80C96
:1019D000E0E2F7E40E94A42080E08A930E94FE1FC8
:1019E0000E94992080E08A930E9406200C94340D76
:1019F000043011F00C940C0DEAE4F7E40E94A420EA
:101A000080E08A930E94FE1F0E94992080E08A93C2
:101A10000E9406200C94340DAA85BB854D915D91E2
:101A20006D917C91AC85BD850D911D912D913C9161
:101A30000E94B4201CF011F00C94200D0C94300D79
:101A4000E2E6F7E40E94A42080E08A930E94FE1F51
:101A50000E94992080E08A930E9406200C94340D05
:101A600081E0AE81BF818C930C94440DE6E9F7E4EC
:101A70000E94A42080E08A930E94FE1F0E94992069
:101A800080E08A930E940620AE81BF810C910130D4
:101A900011F00C94570F81E080937D21AC85BD85BA
:101AA0000D911D912D913C91AEE7B1E20D931D93E7
:101AB0002D933C93AA85BB850D911D912D913C9151
:101AC000A2E8B1E20D931D932D933C93AE85BF85A3
:101AD0008C9180938621AA85BB854D915D916D91F6
:101AE0007C91AC85BD850D911D912D913C910E94FD
:101AF000B4201CF011F00C94570FAA85BB850D91F2
:101B00001D912D913C91AC85BD854D915D916D915F
:101B10007C910E94AF20AA81BB810D931D932D93D0
:101B20003D9340E150E060E070E0AA81BB810D91FF
:101B30001D912D913C910E94B4200CF002C00C9498
:101B4000A90D80E190E0A8E9B1E28D939C930C94FB
:101B5000B90DAA81BB810D911C9140E150E00E941A
:101B6000701FA8E9B1E20D931C93A8E9B1E20E94AD
:101B70005C1FAE85BF858C91AAE9B1E28D93882761
:101B80008C93AC85BD858D919C91ACE9B1E28D9330
:101B90009C93AC85BD8512968D919C91AEE9B1E286
:101BA0008D939C93ACE9B1E2ED91FC9120913B00C7
:101BB0002F9310919E2110933B00A7E8B1E2209152
:101BC000982130919A21313039F011911D932A9545
:101BD0002030D9F70C94F30DC8951191102D1D9359
:101BE0002A952030C9F72F9120933B00AC81BD810D
:101BF0000E949920EC85FD850E944921AC81BD8120
:101C00000E9499200E948E21EA2FFB2F37970FEF19
:101C1000AC81BD810E947C21AE85BF850C910130D5
:101C200011F00C941F0EECEAF7E40E94A42080E06F
:101C30008A930E94FE1F0E9499200C94390E023054
:101C400011F00C942F0EE2EBF7E40E94A42080E048
:101C50008A930E94FE1F0E9499200C94390EE8EB93
:101C6000F7E40E94A42080E08A930E94FE1F0E9455
:101C70009920E8E4F4E40E94A42080E08A930E9482
:101C8000FE1F0E949920AC81BD8180E08A930E9452
:101C9000F71FE6E4F4E40E94A42080E08A930E9407
:101CA000FE1F0E94992081E090E0A8E9B1E28D93A7
:101CB0009C93A8E9B1E20D911C91003150E0150709
:101CC0001CF011F00C94B90EA8E9B1E20D911C9131
:101CD00001501040AAE9B1E20D931C93AA81BB8187
:101CE0004D915D916D917C91AAE9B1E20D911D91AB
:101CF00017FB1EF42FEF3FEF02C0222733270E946D
:101D0000B4201CF011F00C94870E0C94930EEEEBA3
:101D1000F7E40E94A42080E08A930E94FE1F0E94A4
:101D200099200C94B30EAC81BD810E9499200E9431
:101D30009920E8E9F1E2A190B190E6E8F1E2EA0D3C
:101D4000FB1D0E944521AC81BD8180E08A930E94E9
:101D5000F71FE6E4F4E40E94A42080E08A930E9446
:101D6000FE1F0E949920A8E9B1E20E945C1F0C941A
:101D7000590E81E090E0A8E9B1E28D939C93A8E927
:101D8000B1E20D911C91003150E015071CF011F0EB
:101D90000C94350FA8E9B1E20D911C91015010404F
:101DA000AAE9B1E20D931C93AA81BB814D915D918B
:101DB0006D917C91AAE9B1E20D911D9117FB1EF482
:101DC0002FEF3FEF02C0222733270E94B4201CF0E0
:101DD00011F00C94ED0E0C94F90EE6E4F4E40E947C
:101DE000A42080E08A930E94FE1F0E9499200C94F8
:101DF0002F0FA8E9B1E2AD90BD90A6E8B1E2AA0D1F
:101E0000BB1D8C91A881B9818C93A881B9810C915B
:101E1000003210F40C941C0FA881B9810C910F377B
:101E200011F40C941C0FA881B9810C910F3F11F48F
:101E30000C941C0F0C94280FEAE0F4E40E94A420F8
:101E400080E08A930E94FE1F0E9499200C942F0F1D
:101E5000A881B9818C9170E07A930E940C20A8E946
:101E6000B1E20E945C1F0C94BF0EE6EEF3E40E9408
:101E7000A42080E08A930E94FE1F0E94992080E0A7
:101E80008A930E940620AC85BD850D911D912D91F0
:101E90003C9140E150E060E070E00E94AA20AC85F7
:101EA000BD850D931D932D933D930C946B0D80E296
:101EB000481A80E0580A6096089581E00E945020F8
:101EC00082E00E94502081E00E94502082E00E9427
:101ED000502081E00E94502081E00E94502082E04A
:101EE0000E94502080E10E94502080E0AE81BF819E
:101EF0008C93A9E7B1E20D911C91023050E01507D7
:101F00000CF402C00C94940FE2ECF7E40E94A420BD
:101F100080E08A930E94FE1F0E94992080E08A93AD
:101F20000E9406200C94FA15A9E7B1E20D911C91CC
:101F3000023050E0150711F00C940F10ECEDF7E4AF
:101F40000E94A42080E08A930E94FE1F0E94992094
:101F50000E949920E9E8F0E2D2010E94702180E11C
:101F60000E945020AA85BB85BA93AA93AE85BF85EF
:101F7000BA93AA930E942006269680E10E944C20E4
:101F8000AA85BB850C91023011F00C94D70FEAEEB4
:101F9000F7E40E94A42080E08A930E94FE1F0E9422
:101FA000992080E08A930E9406200C940D10033043
:101FB00011F00C94EB0FE6E0F8E40E94A42080E01E
:101FC0008A930E94FE1F0E94992080E08A930E94BB
:101FD00006200C940D10043011F00C94FF0FE6E372
:101FE000F8E40E94A42080E08A930E94FE1F0E94D1
:101FF000992080E08A930E9406200C940D10EAE05C
:10200000F4E40E94A42080E08A930E94FE1F0E94B4
:10201000992080E08A930E9406200C94FA15A9E783
:10202000B1E20D911C91023050E015071CF011F047
:102030000C941C100C94FA150E949920E9E8F0E227
:10204000D2010E94702180E10E945020AA85BB85A8
:10205000BA93AA93AE85BF85BA93AA930E9420062D
:10206000269680E10E944C20AA85BB850C91023007
:1020700011F00C944B10E6E5F8E40E94A42080E0F7
:102080008A930E94FE1F0E94992080E08A930E94FA
:1020900006200C941415033011F00C945F10EEE63A
:1020A000F8E40E94A42080E08A930E94FE1F0E9410
:1020B000992080E08A930E9406200C941415043025
:1020C00011F00C947310EAE9F8E40E94A42080E077
:1020D0008A930E94FE1F0E94992080E08A930E94AA
:1020E00006200C94141580E0AC81BD818C9382E0B5
:1020F00080938621A885B9858D919C91AEE7B1E248
:102100008D939D9388278D938C93AEE7B1E20D91CB
:102110001D912D913C91A2E8B1E20D931D932D9359
:102120003C9381E080937D2183E090E0A8E9B1E2D7
:102130008D939C93A9E7B1E24D915C91A8E9B1E23E
:102140000D911C91041715071CF011F00C94C0148C
:1021500081E10E9450200E9499200E949920E8E984
:10216000F1E20191108140E150E00E945620E9E641
:10217000F0E2E00FF11F01E0A881B9810E947C210B
:10218000A881B981E4EBF8E40E94A4200E94942184
:102190000FB681E1481A80E0580A22960FBE11F06E
:1021A0000C948B1381E10E945020A8E9B1E20D91BB
:1021B0001C9140E150E00E945620A9E6B0E2A00F39
:1021C000B11F0E9499200E948E21EA2FFB2F329787
:1021D0000FEFA881B9810E947C21A881B981E4EB2D
:1021E000F8E40E94A4200E9494210FB681E1481ACD
:1021F00080E0580A22960FBE11F00C94831381E1FF
:102200000E9450200E9499200E949920E8E9F1E262
:102210000191108140E150E00E945620E9E6F0E291
:10222000E00FF11F02E0A881B9810E947C21A88102
:10223000B981E6EBF8E40E94A4200E9494210FB635
:1022400081E1481A80E0580A22960FBE11F00C94E2
:102250006613A8E9B1E20D911C9140E150E00E94A3
:102260005620A9E6B0E2A00FB11F0E948E21A1E185
:10227000B0E28C9300911120033018F011F00C940F
:1022800043110C944713A8E9B1E20D911C9140E170
:1022900050E00E945620A9E6B0E2A00FB11F0E94B4
:1022A0008E21082F112703501040AAE9B1E20D93A7
:1022B0001C9383E00E9499200E949920E8E9F1E2B2
:1022C0000191108140E150E00E945620E9E6F0E2E1
:1022D000E00FF11F00919A210A93A981BA810E940F
:1022E00075210E949920E881F981A881B9810E9415
:1022F0008720A881B9810E941621AAE9B1E20D9335
:102300001C9362FA16F00C94181381E0AE81BF8121
:102310008C93A881B981EAEBF8E40E94A4200E9482
:10232000942111F00C949A118DE0AE85BF858C93A9
:102330000C941613A881B981ECEBF8E40E94A42058
:102340000E94942111F00C94AB1187E0AE85BF85FB
:102350008C930C941613A881B981EEEBF8E40E94DB
:10236000A4200E94942111F00C94BC1188E0AE8549
:10237000BF858C930C941613A881B981E0ECF8E426
:102380000E94A4200E94942111F00C94CD118CE0A5
:10239000AE85BF858C930C941613A881B981EAEBA6
:1023A000F8E40E94A4200E94942111F00C94DE1104
:1023B0008AE0AE85BF858C930C941613A881B981F1
:1023C000E2ECF8E40E94A4200E94942111F00C9405
:1023D000EF118DE0AE85BF858C930C941613A88108
:1023E000B981E4ECF8E40E94A4200E94942111F049
:1023F0000C94001289E0AE85BF858C930C94161363
:10240000A881B981E6ECF8E40E94A4200E949421FE
:1024100011F00C9411128BE0AE85BF858C930C9457
:102420001613A881B981E8ECF8E40E94A4200E9468
:10243000942111F00C9422128CE5AE85BF858C930B
:102440000C941613A881B981E4EBF8E40E94A4204F
:102450000E94942111F00C94331287E2AE85BF855F
:102460008C930C941613E8940E949920E881F981CA
:1024700001E00E948421A1E1B0E28C93009111203F
:10248000023211F00C944A1282E2AE85BF858C9321
:102490000C941613A881B981EAECF8E40E94A420F8
:1024A0000E94942111F00C945B128FE3AE85BF85DE
:1024B0008C930C94161381E10E9450200E94992065
:1024C000EA81FB8101E0A881B9810E947C21A88179
:1024D000B981ECECF8E40E94A4200E9494210FB68C
:1024E00081E1481A80E0580A22960FBE11F00C9440
:1024F00010130E949920E881F981D2010E94702175
:1025000080E10E945020AC81BD81BA93AA93AE8530
:10251000BF85BA93AA930E942006269680E10E9466
:102520004C20AA85BB850C91023011F00C94AC12A2
:10253000E6E5F8E40E94A42080E08A930E94FE1F52
:102540000E94992080E08A930E94062086E0AC8158
:10255000BD818C930C940513033011F00C94C412BC
:10256000EEE6F8E40E94A42080E08A930E94FE1F19
:102570000E94992080E08A930E94062086E0AC8128
:10258000BD818C930C940513043011F00C94DC1273
:10259000EAE9F8E40E94A42080E08A930E94FE1FEA
:1025A0000E94992080E08A930E94062086E0AC81F8
:1025B000BD818C930C940513AA81BB810D911C9154
:1025C0000F3F50E0150718F011F00C94E9120C942D
:1025D000EF1282E0AC81BD818C930C940513AA812B
:1025E000BB810D911C91003050E0150710F00C9448
:1025F000FF1283E0AC81BD818C930C940513AA81FA
:10260000BB818C91AE85BF858C93AC81BD810C91D3
:10261000003011F40C940E130C94C0140C94161387
:1026200084E0AC81BD818C930C94C0140C94451350
:10263000AAE9B1E20D911C910F3F50E015071CF083
:1026400011F00C9425130C942B1382E0AC81BD8106
:102650008C930C944513AAE9B1E20D911C910030C2
:1026600050E015070CF402C00C943C1383E0AC81DD
:10267000BD818C930C94451381E0AE81BF818C9316
:1026800080919A21AE85BF858C930C946413A8E940
:10269000B1E20D911C9140E150E00E945620A9E664
:1026A000B0E2A00FB11FEEECF8E40E94A4200E945B
:1026B000942111F00C94641381E0AE81BF818C935E
:1026C0008CE5AE85BF858C930C94811381E0AE813F
:1026D000BF818C93E8940E9499200E949920E8E998
:1026E000F1E20191108140E150E00E945620E9E6BC
:1026F000F0E2E00FF11F02E00E948421AE85BF8569
:102700008C930C94891381E0AC81BD818C930C94E3
:10271000C0140C941D14A8E9B1E20D911C9140E184
:1027200050E00E945620A9E6B0E2A00FB11F0E941F
:1027300099200E948E21EA2FFB2F32970FEFA8815C
:10274000B9810E947C210E949920E881F981A881A9
:10275000B9810E948720A881B981E2EDF8E40E9446
:10276000A4200E94942111F00C94DD13A8E9B1E299
:102770000D911C9140E150E00E945620A9E6B0E284
:10278000A00FB11F0E948E21082F11270150104069
:10279000AC85BD850D931C930E949920E881F98139
:1027A000AC85BD850C91A881B9810E947C2181E016
:1027B000AE81BF818C930C94E11382E0AE81BF8126
:1027C0008C93A8E9B1E20D911C9140E150E00E9488
:1027D0005620A9E6B0E2A00FB11F0E941621AAE977
:1027E000B1E20D931C9362FA16F00C94FF1385E08E
:1027F000AC81BD818C930C94C0140C941D14AE81DB
:10280000BF810C91013011F00C94111481E0AE8164
:10281000BF818C9380919A21AE85BF858C930C9457
:102820001D1482E0AE81BF818C93AAE9B1E28D9143
:102830009C91AC85BD858D939C93AC81BD810C91A1
:10284000003011F00C94AC14AE81BF810C910130BA
:1028500011F00C945D14AE85BF858C918093972107
:10286000A885B9858D919C91ACE9B1E28D939C933B
:10287000A885B98512968D919C91AEE9B1E28D93B0
:102880009C93ACE9B1E2ED91FC9120913B002F9338
:1028900010E010933B001091972110832F9120930B
:1028A0003B00A885B9850D911C910F5F1F4FA8852E
:1028B000B9850D931C930C94AA14AE81BF810C9121
:1028C000023011F00C949C14AC85BD858D919C91C7
:1028D000AAE9B1E28D939C93A885B9858D919C91CD
:1028E000ACE9B1E28D939C93A885B98512968D9140
:1028F0009C91AEE9B1E28D939C93ACE9B1E2ED918C
:10290000FC9120913B002F9310E010933B0010911D
:102910009A21119310919B2110832F9120933B00BA
:10292000A885B9850D911C910E5F1F4FA885B985AB
:102930000D931C930C94AA14E4EDF8E40E94A420D7
:1029400080E08A930E94FE1F0E94992080E08A9373
:102950000E9406200C94BA14EAEEF8E40E94A42027
:1029600080E08A930E94FE1F0E94992080E08A9353
:102970000E940620A8E9B1E20E945C1F0C949A1004
:10298000A885B9850D911C912227332741E050E09D
:1029900060E070E00E94AF20A2E8B1E20D931D93C9
:1029A0002D933D93A2E8B1E24D915D916D917C91A3
:1029B000AEE7B1E20D911D912D913C910E94B420A2
:1029C00011F00C94E81480E080937D210C94141590
:1029D000EAE1F9E40E94A42080E08A930E94FE1FAD
:1029E0000E94992082E270E07A930E940C20E8E431
:1029F000F9E40E94A42080E08A930E94FE1F0E94B6
:102A0000992082E270E07A930E940C20EAE0F4E4DC
:102A10000E94A42080E08A930E94FE1F0E949920B9
:102A200080E08A930E940620AC81BD810C91013028
:102A300011F00C94FA15A8E9B1E20D911C91025025
:102A40001040AAE9B1E20D931C93E6E5F9E40E9477
:102A5000A42080E08A930E94FE1F0E949920A0E497
:102A6000BFE20E949920EAE9F1E20E94CD2080E0D5
:102A70008A930E94F51FE2E9F9E40E94A42080E015
:102A80008A930E94FE1F0E94992082E270E07A934E
:102A90000E940C20A8E9B1E20D911C9140E150E0A8
:102AA0000E945620A9E6B0E2A00FB11F80E08A93F1
:102AB0000E94F71F82E270E07A930E940C20EAE005
:102AC000F4E40E94A42080E08A930E94FE1F0E94EA
:102AD000992080E08A930E940620AC81BD810C91F0
:102AE000003011F00C948415ECE9F9E40E94A42064
:102AF00080E08A930E94FE1F0E94992080E08A93C2
:102B00000E9406200C94FA15013011F00C949815CF
:102B1000E8EDF9E40E94A42080E08A930E94FE1F61
:102B20000E94992080E08A930E9406200C94FA1556
:102B3000023011F00C94AC15E4EFF9E40E94A420EB
:102B400080E08A930E94FE1F0E94992080E08A9371
:102B50000E9406200C94FA15033011F00C94C01555
:102B6000E6E2FAE40E94A42080E08A930E94FE1F1D
:102B70000E94992080E08A930E9406200C94FA1506
:102B8000043011F00C94D415E8E5FAE40E94A42076
:102B900080E08A930E94FE1F0E94992080E08A9321
:102BA0000E9406200C94FA15053011F00C94E815DB
:102BB000E2E7FAE40E94A42080E08A930E94FE1FCC
:102BC0000E94992080E08A930E9406200C94FA15B6
:102BD000063011F00C94FA15E2E8FAE40E94A42001
:102BE00080E08A930E94FE1F0E94992080E08A93D1
:102BF0000E9406208AE1481A80E0580A60960895EB
:102C00008CE070E07A930E940C200895F89418EDFF
:102C1000109334007091790071607093790078940A
:102C2000089581E10E94502082E00E94502081E1BD
:102C30000E94502082E00E94502082E00E9450209A
:102C400082E00E94502081E00E94502085E00E9496
:102C5000502081E00E94502081E00E945020A9E78E
:102C6000B1E20D911C91023050E015070CF402C046
:102C70000C943618E6E9FAE40E94A42080E08A93D6
:102C80000E94FE1F0E94992080E08A930E940620E5
:102C9000EAECFAE40E94A42080E08A930E94FE1FDE
:102CA0000E949920E8EDFBE30E94A4200E944F1FA0
:102CB0000E94551FAA89BB890E9460200E944F1F55
:102CC000AA89BB898C91803011F40C949816AA893A
:102CD000BB8980E08A930E94F71F0E94551FAA8932
:102CE000BB890E9460200E944F1FAA89BB898C91DA
:102CF000803011F40C948816E2EDFAE40E94A420CE
:102D000080E08A930E94FE1F0E9499200C949616E0
:102D1000EAE0F4E40E94A42080E08A930E94FE1F6F
:102D20000E94992080E08A930E9406200C946016ED
:102D3000E6EDFAE40E94A42080E08A930E94FE1F40
:102D40000E94992080E08A930E940620E8EBFCE331
:102D50000E94A4200E944F1F0E94551FAE85BF8570
:102D60000E9460200E944F1FAE85BF858C918030ED
:102D700011F40C94EC16AE85BF8580E08A930E9416
:102D8000F71F0E94551FAE85BF850E9460200E94DC
:102D90004F1FAE85BF858C91803011F40C94DC16EA
:102DA000E2EDFAE40E94A42080E08A930E94FE1FD4
:102DB0000E9499200C94EA16EAE0F4E40E94A42010
:102DC00080E08A930E94FE1F0E94992080E08A93EF
:102DD0000E9406200C94B416E8EEFAE40E94A420A7
:102DE00080E08A930E94FE1F0E949920EEE2FCE39D
:102DF0000E94A4200E944F1F0E94551FAA89BB89D0
:102E00000E9460200E944F1FAA89BB898C9180304C
:102E100011F40C943C17AA89BB8980E08A930E9424
:102E2000F71F0E94551FAA89BB890E9460200E943B
:102E30004F1FAA89BB898C91803011F40C942C17F8
:102E4000E2EDFAE40E94A42080E08A930E94FE1F33
:102E50000E9499200C943A17EAE0F4E40E94A4201E
:102E600080E08A930E94FE1F0E94992080E08A934E
:102E70000E9406200C940417E2EFFAE40E94A420BA
:102E800080E08A930E94FE1F0E94992080E08A932E
:102E90000E940620E6E8FDE30E94A4200E944F1F46
:102EA0000E94551FAE85BF850E9460200E944F1F63
:102EB000AE85BF858C91803011F40C949017AE854F
:102EC000BF8580E08A930E94F71F0E94551FAE8540
:102ED000BF850E9460200E944F1FAE85BF858C91E8
:102EE000803011F40C948017E2EDFAE40E94A420E3
:102EF00080E08A930E94FE1F0E9499200C948E17F6
:102F0000EAE0F4E40E94A42080E08A930E94FE1F7D
:102F10000E94992080E08A930E9406200C94581702
:102F2000E4E0FBE40E94A42080E08A930E94FE1F5C
:102F30000E949920E2E8FCE30E94A4200E944F1F17
:102F40000E94551FAA89BB890E9460200E944F1FC2
:102F5000AA89BB898C91803011F40C94E017AA895E
:102F6000BB8980E08A930E94F71F0E94551FAA899F
:102F7000BB890E9460200E944F1FAA89BB898C9147
:102F8000803011F40C94D017E2EDFAE40E94A420F2
:102F900080E08A930E94FE1F0E9499200C94DE1705
:102FA000EAE0F4E40E94A42080E08A930E94FE1FDD
:102FB0000E94992080E08A930E9406200C94A81712
:102FC000E6E1FBE40E94A42080E08A930E94FE1FB9
:102FD0000E94992080E08A930E940620EAECFDE39B
:102FE0000E94A4200E944F1F0E94551FAE85BF85DE
:102FF0000E9460200E944F1FAE85BF858C9180305B
:1030000011F40C943418AE85BF8580E08A930E9439
:10301000F71F0E94551FAE85BF850E9460200E9449
:103020004F1FAE85BF858C91803011F40C9424180D
:10303000E2EDFAE40E94A42080E08A930E94FE1F41
:103040000E9499200C943218EAE0F4E40E94A42033
:1030500080E08A930E94FE1F0E94992080E08A935C
:103060000E9406200C94FC170C94741DAA89BB893D
:1030700088278C9381E090E0A8E9B1E28D939C933E
:103080008FEFAE81BF818C9308ED1BE30E94A420DB
:10309000ACE9B1E20D931C93ACE9B1E2BA93AA9307
:1030A000A9E8B0E2BA93AA93A8E9B1E2BA93AA93C5
:1030B0000E940B052696A8E9B1E20D911C91003003
:1030C00050E015071CF011F00C9468180C94761859
:1030D000A8E9B1E28D919C91A889B9898D939C93BF
:1030E00080E0AE81BF818C930C9402190EE21CE348
:1030F0000E94A420ACE9B1E20D931C93ACE9B1E2CB
:10310000BA93AA93A9E8B0E2BA93AA93A8E9B1E264
:10311000BA93AA930E940B052696A8E9B1E20D91F5
:103120001C91003050E015071CF011F00C949A1817
:103130000C94A818A8E9B1E28D919C91A889B9894D
:103140008D939C9381E0AE81BF818C930C94021986
:1031500002E81CE30E94A420ACE9B1E20D931C93A9
:10316000ACE9B1E2BA93AA93A9E8B0E2BA93AA9300
:10317000A8E9B1E2BA93AA930E940B052696A8E9A2
:10318000B1E20D911C91003050E015071CF011F0D8
:103190000C94CC180C94DA18A8E9B1E28D919C91AA
:1031A000A889B9898D939C9382E0AE81BF818C936D
:1031B0000C940219E0E3FBE40E94A42080E08A93CF
:1031C0000E94FE1F0E94992082E270E07A930E9482
:1031D0000C20A9E8B0E280E08A930E94F71F82E207
:1031E00070E07A930E940C20E0E4FBE40E94A420AB
:1031F00080E08A930E94FE1F0E94992080E08A93BB
:103200000E940620AE81BF810C910F3F11F00C94FB
:103210000B190C94741DAE81BF810C91003011F01C
:103220000C941A19E6E1FCE30E94A4200E944F1FAF
:103230000C944019013011F00C942619E0E7FCE3DE
:103240000E94A4200E944F1F0C944019023011F0DC
:103250000C943219EAEAFCE30E94A4200E944F1F5A
:103260000C944019E8E6FBE40E94A42080E08A93D5
:103270000E94FE1F0E94992080E08A930E940620EF
:1032800081E090E0A8E9B1E28D939C93A889B98987
:103290004D915C91A8E9B1E20D911C9104171507BD
:1032A0001CF011F00C9462190E94551FAC85BD856D
:1032B0000E947D200E944F1FA8E9B1E20E945C1F7E
:1032C0000C944619AE81BF810C91003011F00C9422
:1032D0007119E8EDFBE30E94A4200E944F1F0C949B
:1032E0009719013011F00C947D19EEE2FCE30E9475
:1032F000A4200E944F1F0C949719023011F00C94D7
:103300008919E2E8FCE30E94A4200E944F1F0C945C
:103310009719E8E6FBE40E94A42080E08A930E94CB
:10332000FE1F0E94992080E08A930E94062081E07F
:1033300090E0A8E9B1E28D939C93A889B9894D9159
:103340005C91A8E9B1E20D911C91041715071CF0DE
:1033500011F00C94B9190E94551FAA89BB890E94CB
:1033600060200E944F1FA8E9B1E20E945C1F0C94EC
:103370009D19A9E7B1E20D911C91023050E01507AB
:1033800011F00C94AF1AAA89BB8980E08A930E943D
:10339000F71FECE3F5E40E94A42080E08A930E94EA
:1033A000FE1F0E94992080E08A930E940620AE8131
:1033B000BF810C91003011F00C94EE1908EB1CE366
:1033C0000E94A420ACE9B1E20D931C93EAE5FDE371
:1033D0000E94A4200E944F1F0C94141A013011F077
:1033E0000C94021A06E81DE30E94A420ACE9B1E2A5
:1033F0000D931C93EAEBFDE30E94A4200E944F1F53
:103400000C94141A023011F00C94141A0AEC1DE3F7
:103410000E94A420ACE9B1E20D931C93EAE6FEE31E
:103420000E94A4200E944F1F80E0AA81BB818C9340
:103430000E94551FAA85BB850E947D200E944F1FB8
:10344000AA85BB850D911C910F3F5FEF150710F00A
:103450000C949F1AACE9B1E2BA93AA930E94980522
:103460002296AC85BD850D911C91AA85BB854D9199
:103470005C91040F151FAEE9B1E20D931C930E94FD
:103480009920EEE9F1E2A191B0811C91109397216E
:10349000AC81BD810E949920E7E9F1E20E944521BB
:1034A000E0E8FBE40E94A42080E08A930E94FE1FD3
:1034B0000E949920AC81BD8180E08A930E94F71F11
:1034C000AA81BB818C918F5F8C93AA81BB810D9166
:1034D000112745E050E00E94701FAAE9B1E20D9368
:1034E0001C93AAE9B1E20D911C91003050E0150740
:1034F00011F00C948B1AE6EEF3E40E94A42080E015
:103500008A930E94FE1F0E94992080E08A930E9465
:1035100006200C94951AE4E8FBE40E94A42080E0C5
:103520008A930E94FE1F0E9499200E94551FAA851F
:10353000BB850E947D200E944F1F0C94201AE6EE4E
:10354000F3E40E94A42080E08A930E94FE1F0E9460
:10355000992080E08A930E9406200C94741DA9E7AC
:10356000B1E20D911C91043050E015071CF011F0F0
:103570000C94661DAE81BF810C91003011F00C944B
:10358000D11A08EB1CE30E94A420ACE9B1E20D9330
:103590001C93EAE5FDE30E94A4200E944F1F0C94B7
:1035A000F71A013011F00C94E51A06E81DE30E94A9
:1035B000A420ACE9B1E20D931C93EAEBFDE30E9479
:1035C000A4200E944F1F0C94F71A023011F00C94A3
:1035D000F71A0AEC1DE30E94A420ACE9B1E20D93B6
:1035E0001C93EAE6FEE30E94A4200E944F1FACE970
:1035F000B1E2BA93AA93A9E9B0E2BA93AA93A8E96F
:10360000B1E2BA93AA930E940B052696A8E9B1E20B
:103610000D911C91003050E015071CF011F00C9436
:10362000131B0C942C1DA9E7B1E20D911C910330E2
:1036300050E0150711F00C942D1BAA89BB8980E07E
:103640008A930E94F71FEAE0F4E40E94A42080E03D
:103650008A930E94FE1F0E949920AE81BF810C9127
:10366000003011F00C94441B08EB1CE30E94A420D2
:10367000ACE9B1E20D931C93EAE5FDE30E94A420BE
:103680000E944F1F0C946A1B013011F00C94581BC0
:1036900006E81DE30E94A420ACE9B1E20D931C935F
:1036A000EAEBFDE30E94A4200E944F1F0C946A1BCA
:1036B000023011F00C946A1B0AEC1DE30E94A42056
:1036C000ACE9B1E20D931C93EAE6FEE30E94A4206C
:1036D0000E944F1FA9E7B1E20D911C91033050E009
:1036E000150711F00C948F1BACE9B1E2BA93AA93C1
:1036F000A8E9B1E28D919C91D2018D939C9382E0D7
:103700000E9450200E945F05249682E00E944C2077
:10371000ACE9B1E2BA93AA930E949805229681E09F
:1037200090E0AAE9B1E28D939C93A8E9B1E24D91B2
:103730005C91AAE9B1E20D911C91041715071CF0E8
:1037400011F00C94B11B0E94551FAA85BB850E94E5
:103750007D200E944F1FAAE9B1E20E945C1F0C94D9
:10376000951BAC85BD850D911C91AA85BB854D919E
:103770005C91040F151FAEE9B1E20D931C9380E03C
:10378000A881B9818C93A9E7B1E20D911C91043015
:1037900050E0150711F00C94A91C0E949920E9EA49
:1037A000F0E202E0AC81BD810E947C2181E00E94B8
:1037B00050200E949920EE81FF81A881B9810E944A
:1037C0008720A881B981E8E4F4E40E94A4200E9443
:1037D00094210FB681E0481A80E0580A22960FBE65
:1037E00011F00C94311CA9EAB0E20E948E21A8E9E4
:1037F000B1E28D9388278C93A8E9B1E20D911C91D9
:1038000002501040A8E9B1E20D931C9383E00E949E
:103810009920E9EAF0E2009198210A93AD81BE81F6
:103820000E947521AC81BD810E94BA1FA7E9B1E257
:103830000C9362FA16F00C942F1CE8E8FBE40E944B
:10384000A42080E08A930E94FE1F0E94992080E0BD
:103850008A930E94062081E0A881B9818C930C9400
:10386000A91C81E00E9450200E949920EE81FF81D6
:10387000A881B9810E948720A881B981ECE9FBE485
:103880000E94A4200E9494210FB681E0481A80E093
:10389000580A22960FBE11F00C948C1CA9EAB0E2D3
:1038A0000E948E21A8E9B1E28D9388278C93A8E924
:1038B000B1E20D911C9102501040A8E9B1E20D93C4
:1038C0001C9383E00E949920E9EAF0E2009198219C
:1038D0000A93AD81BE810E947521AC81BD810E9499
:1038E0005E21A7E9B1E20C9362FA16F00C948A1CEF
:1038F000E0EAFBE40E94A42080E08A930E94FE1F7D
:103900000E94992080E08A930E94062081E0A8818D
:10391000B9818C930C94A91CA9EAB0E20E941621EB
:10392000A7E9B1E20C9362FA16F00C94A91CE6EB3D
:10393000FBE40E94A42080E08A930E94FE1F0E9464
:10394000992080E08A930E94062081E0A881B981B5
:103950008C93A881B9810C91003011F00C942A1D30
:103960000E949920EEE9F1E2A191B08110917921B4
:10397000143011F40C94BE1C0C94011D109197216D
:103980001C93E4ECFBE40E94A42080E08A930E9454
:10399000FE1F0E949920A9EAB0E280E08A930E946B
:1039A000F71FEAECFBE40E94A42080E08A930E94C7
:1039B000FE1F0E949920A9E8B0E280E08A930E944D
:1039C000F71FEAE0F4E40E94A42080E08A930E94BA
:1039D000FE1F0E949920A9E9B0E280E08A930E942C
:1039E000F71FEAE0F4E40E94A42080E08A930E949A
:1039F000FE1F0E94992080E08A930E9406200C946A
:103A0000741D1C9110939721AC81BD810E94992057
:103A1000E7E9F1E20E944521E0E8FBE40E94A420EE
:103A200080E08A930E94FE1F0E949920AC81BD8194
:103A300080E08A930E94F71FE6EEF3E40E94A42040
:103A400080E08A930E94FE1F0E94992080E08A9362
:103A50000E9406200C94641D82E270E07A930E941A
:103A60000C20A9E9B0E280E08A930E94F71F82E26D
:103A700070E07A930E940C20E0EEFBE40E94A42008
:103A800080E08A930E94FE1F0E94992082E270E0EB
:103A90007A930E940C20AA89BB8980E08A930E94B5
:103AA000F71F82E270E07A930E940C20EAE0F4E4CF
:103AB0000E94A42080E08A930E94FE1F0E94992009
:103AC00080E08A930E9406200C94741DE6E0FCE4DA
:103AD0000E94A42080E08A930E94FE1F0E949920E9
:103AE00080E08A930E94062082E3481A80E0580A08
:103AF00064960895636D640064756D7000696E73FB
:103B000065727400636C7300726573657400696F2D
:103B100000005072696E7473206C697374206F6654
:103B200020636F6D6D616E647320776974682064C3
:103B300065736372697074696F6E732077686174FE
:103B4000206561636820646F6573005072696E74EC
:103B50007320636F6E74656E7473206F66206D657D
:103B60006D6F727900496E7365727473206461744D
:103B70006120696E746F2064617461206D656D6F82
:103B8000727900436C656172732074686520736399
:103B90007265656E00526573657473207468652084
:103BA0006D6963726F636F6E74726F6C6C657200B7
:103BB000436F6E74726F6C732074686520636F6EF0
:103BC00074656E7473206F6620492F4F207265678D
:103BD0006973746572730000504F52544100504F26
:103BE00052544200504F52544300504F52544400DC
:103BF000504F52544500504F52544600504F52546B
:103C00004800504F52544A00504F52544B00504FAE
:103C1000525451000000000620064006600680064F
:103C2000A006E00600072007C007E007FFFF555386
:103C3000415254433000555341525443310055537F
:103C4000415254443000555341525444310055536D
:103C5000415254453000555341525445310055535B
:103C600041525446300055534152544631000000F1
:103C7000A008B008A009B009A00AB00A000B400BC8
:103C8000FFFF544343300054434331005443443016
:103C900000544344310054434530005443453100FF
:103CA00054434630005443463100000840080009A0
:103CB0004009000A000BFFFF444952004449525397
:103CC000455400444952434C520044495254474CD5
:103CD000004F5554004F5554534554004F555443CD
:103CE0004C52004F555454474C00494E00494E54D5
:103CF0004354524C00494E54304D41534B00494EB1
:103D000054314D41534B00494E54464C41475300AA
:103D100050494E304354524C0050494E3143545256
:103D20004C0050494E324354524C0050494E33439C
:103D300054524C0050494E344354524C0050494E5A
:103D4000354354524C0050494E364354524C005067
:103D5000494E374354524C0000000000010002005D
:103D600003000400050006000700080009000A001F
:103D70000B000C00100011001200130014001500BD
:103D800016001700FFFF444154410053544154555D
:103D900053004354524C41004354524C420043544C
:103DA000524C4300424155444354524C410042411D
:103DB00055444354524C42000000000001000300EF
:103DC0000400050006000700FFFF4354524C410069
:103DD0004354524C42004354524C43004354524CBF
:103DE00044004354524C4500494E544354524C41B4
:103DF00000494E544354524C42004354524C4643A3
:103E00004C52004354524C46534554004354524C78
:103E100047434C52004354524C4753455400494E7B
:103E200054464C4147530054454D5000434E544C6A
:103E300000434E5448005045524C005045524800F3
:103E40004343414C0043434148004343424C0043F9
:103E5000434248004343434C0043434348004343E9
:103E6000444C0043434448000000000001000200AD
:103E70000300040006000700080009000A000B0008
:103E80000C000F0020002100260027002800290038
:103E90002A002B002C002D002E002F00FFFF8E2E5D
:103EA0009F2E8BB7809300200895E82DF92D8091E7
:103EB00000208BBF88940895ED91FC91EF5FFF4F38
:103EC000FC93EE930895ED91FC91E150F040FC934A
:103ED000EE93089509D00E94562000FC10D008955A
:103EE00003D01ED001F8F9CF0024E89457FF02C098
:103EF00009D0689400F80BD010F80124089502D07E
:103F000009D00895509540954F5F5F4F0895E8940C
:103F100017FF0895009510950F5F1F4F689408953F
:103F2000352F242FE894452B11F468940895512FD0
:103F3000402F0027112780E1440F551F001F111F3C
:103F4000021B130B416018F4020F131F4E7F8A955A
:103F500099F708958F938D918823E9F711978F91A1
:103F600008953197F1F70895689462F80895E894F8
:103F700062F808950027112722273327E89462F872
:103F80008D918823D9F08032D9F3CDD08734A0F435
:103F9000813420F48A3380F4803370F0EAD0E9D0A1
:103FA000E8D0E7D0815408F4895F865F080F88273E
:103FB000181F281F381FE4CF689462F8089579917C
:103FC000A0EA769508F4A0EBB8E0B70F08957881E1
:103FD0007A93BF93AF93F3DF11967C9177FFFDCF78
:103FE00011978C91AF91BF910895A0E4BFE28D919C
:103FF000882311F00FD0FBCF219608950E947120E5
:10400000802D11F007D0FACF219608958DE002D0CF
:104010008AE002C078817A93BF93AF93D0DF119684
:104020007C9175FFFDCF11978C93AF91BF9108954F
:104030008F939F93AF93BF93882790E2A1E0B0E264
:104040008D939A95E9F7BF91AF919F918F910895C4
:104050008F9380910120881F8093012080910220FE
:10406000881F8093022080910320881F8093032063
:1040700080910420881F8093042080910520881F50
:10408000809305208F9108950191119121913081A4
:104090000895481A590A0895481A8827580A089511
:1040A00099275A924A92480E591E08950F92B801C4
:1040B000469F8001479F100D569F100D0F90089549
:1040C0000E9471200D920020D9F70895903041F0A0
:1040D0000D911C91000F111F9A95E1F71C930E93FF
:1040E0000895D895319628F48F938BB783958BBF1D
:1040F0008F910020089591E005C092E003C094E004
:1041000001C098E0EEDF0D929A95E1F70895819154
:1041100004D08D938823D9F70895813418F08B3516
:1041200008F480620895813618F08B3708F48F7D8B
:1041300008950F9200240BBE0F9008950F9301E095
:104140000BBF0F91889408950F930027F9CF0F9319
:1041500002E0F6CF040F151F261F371F0895041B1A
:10416000150B260B370B089504171507260737077D
:104170000895000F111F221F331F089500951095F9
:10418000209530950F5F1F4F2F4F3F4F089501919E
:1041900010810CC00E9444200BC00191108117FFB8
:1041A00005C03FEF2FEF04C00081112722273327DE
:1041B00037FF03C0E3DF8DE28D930E94182040E2B9
:1041C0000E949920E1E0F0E255E093E38081890FBD
:1041D00087FD9F7083FD907F891B81935A95A9F776
:1041E000C8DF0E9428204A9559F7E8940E94992038
:1041F000E1E0F0E20E2E0394359682910AD0E015AC
:10420000E0F726F068948091012007D088278D93ED
:104210000895982F829501D0892F8F70805D26F0A8
:10422000803309F4089568948D9308950027112729
:10423000222733271DD08A3328F4803318F005D085
:1042400015D0F9CF0EF49ACF089580538F93402F55
:10425000512F622F732F8DDF8CDF7CDF8ADF8F91F0
:104260009927080F191F291F391F08958D91089547
:10427000E894FCDF8032E9F38B32D9F38930C9F35B
:104280008D3211F46894F2CF089541E003C042E00A
:1042900001C044E0E40F8827F81F8291982F82958F
:1042A00006D0892F04D04A95C1F70C946D218F70E8
:1042B0008A3008F0895F805D8D930895002711276B
:1042C000222733278D91882339F08053000F111F47
:1042D000221F331F080FF6CF089588278D93089566
:1042E00081918D938823E1F7089509919191992304
:1042F00051F08A95D9F73197002329F081918D9358
:104300000A958823C9F7E9CF16F4EBDE01C00190C6
:10431000802D803011F00A95B9F708958FEF8395BD
:104320009D919923E1F70895689401C0E894AF93B3
:10433000BF938D9116F0919103C00E947120902D32
:10434000891718F011F48823A1F7BF91AF91089550
:104350004D6F6E69746F722050726F6772616D205D
:10436000666F7220584D454741203230313500008C
:10437000436F70797269676874202863292032302E
:1043800031362C205A766F6E696D6972204D6172DC
:1043900074696E69E600416C6C20726967687473B9
:1043A0002072657365727665642E000054686973C7
:1043B00020736F667477617265206973206C69631E
:1043C000656E73656420776974682074686520324F
:1043D0002D436C6175736520425344204C696365BD
:1043E0006E73652E00000000466F72206C69737456
:1043F000206F6620636F6D6D616E64732C2074791D
:1044000070652000636D642031002E003E004E6F09
:10441000207375636820636F6D6D616E64206173D6
:1044200020002E20546F207365652077686174200A
:10443000636F6D6D616E64732065786973742C2091
:10444000747970652000200030780000546F6F2070
:104450006C6974746C6520706172616D65746572ED
:10446000732E205472792000546F6F206D7563682D
:1044700020706172616D65746572732E205472795B
:104480002000436F6D6D616E642070616765206E02
:10449000756D6265722063616E6E6F742062652057
:1044A0006E656761746976652E0050616765206E80
:1044B000756D62657220746F6F206269672E204E81
:1044C000756D626572206F66207061676573206923
:1044D000732000004C697374206F6620636F6D6DEC
:1044E000616E64732028506167652000206F66202C
:1044F0000000293A00002E2000003A200000456EFE
:1045000064206F66207061676520000020466F722E
:10451000206E65787420706167652C2074797065F1
:104520002000636D6420000048656C7020666F7227
:1045300020636F6D6D616E643A2000003A00436F36
:104540006D6D616E6420000020646F65736E27746A
:104550002065786973742E20546F20736565207709
:1045600068617420636F6D6D616E647320646F2C7D
:104570002074797065200000546F6F206C6974742A
:104580006C6520706172616D65746572732E0000D8
:104590007072657669657700546865726520697325
:1045A000206E6F7468696E6720746F207072657614
:1045B0006965772E0000737461636B0044756D70DC
:1045C000696E6720737461636B206E6F7420796508
:1045D0007420696D706C656D656E7465642E000085
:1045E00070726F6700004D697373696E6720616454
:1045F0006472657373286573292E000064617461A9
:1046000000006E6578740000546865726527732039
:104610006E6F7468696E67206E657874206265637A
:1046200061757365207468657265207761736E27A4
:104630007420616E797468696E672070726576693E
:104640006F75732E000064756D70200020646F65B7
:10465000736E2774206D65616E20616E7974686970
:104660006E6720746F20456D6265646465642044E4
:10467000656275676765722E000044756D70207302
:104680006F7572636520756E6B6E6F776E2E204F3F
:104690006E6C7920000020616E64200020617265DC
:1046A00020737570706F727465642E00537461723C
:1046B00074206164647265737320746F6F20626923
:1046C000672E0000537461727420616464726573B4
:1046D000732069736E277420696E20686578616441
:1046E0006563696D616C20666F726D61742E000088
:1046F00053746172742061646472657373206973AA
:10470000206D697373696E672E00456E6420616465
:10471000647265737320746F6F206269672E000086
:10472000456E6420616464726573732069736E27DB
:104730007420696E2068657861646563696D616C79
:1047400020666F726D61742E0000456E6420616496
:104750006472657373206973206D697373696E6722
:104760002E005374617274206164647265737320E7
:104770006D7573746E27742062652067726561744D
:104780006572207468616E20656E64206164647275
:104790006573732E0000546F6F206D616E79207009
:1047A0006172616D65746572732E000070726F675F
:1047B00020006461746120003F3F3F3F20002020C3
:1047C00020004164647265737320616E64206461CB
:1047D0007461206D697373696E672E004D69737320
:1047E000696E672064617461000020616E642069F5
:1047F0006E707574206164647265737320746F6F7A
:10480000206269672E0020616E6420696E70757485
:1048100020616464726573732069736E2774206904
:104820006E2068657861646563696D616C20666F90
:10483000726D61742E0020616E6420696E707574F3
:104840002061646472657373206973206D6973738A
:10485000696E672E0000496E707574206164647221
:1048600065737320746F6F206269672E0000496E54
:1048700070757420616464726573732069736E2748
:104880007420696E2068657861646563696D616C28
:1048900020666F726D61742E0000496E7075742011
:1048A00061646472657373206973206D69737369E1
:1048B0006E672E002700275C00006E00610062001A
:1048C00066007200740076005C003F007800275C90
:1048D00027007300556E646566696E6564206461C7
:1048E000746120747970652E00004572726F7220B9
:1048F000696E20696E70757420616E6420746865DD
:1049000020464F52206C6F6F70207761736E277452
:10491000206578697465642100005375636365736D
:10492000732120546F207365652077686174206857
:104930006173206265656E207772697474656E2C90
:10494000207479706520000064756D702070726548
:104950007669657700004E6F7420616C6C20627917
:104960007465732077657265207772697474656EFB
:104970002064756520746F206572726F7220696E95
:10498000206461746120706172616D65746572206C
:10499000000020736179696E6720000054686572B9
:1049A0006520776173206E6F206572726F7220735D
:1049B0006F2077687920736179207468657265204B
:1049C00077617320696E20746865206669727374FC
:1049D00020706C6163653F0051756F746520657868
:1049E0007065637465642061742074686520656E09
:1049F000642E0000496E76616C69642063686172A0
:104A000061637465722062656361757365207468A3
:104A100065206E756D626572206973206F766572B0
:104A2000203235352E00496E76616C6964206368EA
:104A3000617261637465722062656361757365207C
:104A4000746865206E756D626572206973206E658D
:104A50006761746976652E00496E76616C696420C1
:104A6000636861726163746572206E756D626572F0
:104A70002E00496E76616C6964206E756D62657298
:104A80002E00416C7265616479206578706C616993
:104A90006E65642E0000494F20706572697068650C
:104AA00072616C206E6F74207370656369666965EE
:104AB000642E20546865726520617265207065728D
:104AC0006970686572616C733A00506F7274733A02
:104AD00020002C200000506F72742072656769738B
:104AE000746572733A2000005553415254733A2052
:104AF00000005553415254207265676973746572A2
:104B0000733A200054696D65722F436F756E74653A
:104B1000722D733A200054696D65722F436F756E64
:104B2000746572207265676973746572733A2000E8
:104B3000494F207065726970686572616C20000071
:104B400020646F65736E2774206578697374206FB5
:104B5000722069736E277420796574207375707084
:104B60006F727465642E0000556E6B6E6F776E20E9
:104B7000494F20747970652E204F6F70732E00009E
:104B80003D30780020200000496E76616C69642019
:104B9000686578206E756D62657200003062000095
:104BA000496E76616C69642062696E617279206E0B
:104BB000756D62657200496E76616C69642076611C
:104BC0006C7565004279746520002068617320620D
:104BD00065656E207772697474656E20746F20004D
:104BE000206973206E6F7420612072656769737429
:104BF0006572206F662074686520706572697068E0
:104C00006572616C2000546F6F206D616E79207049
:0A4C10006172616D657465727300D6
:00000001FF
